{
  "contractName": "Betting",
  "abi": [
    {
      "constant": true,
      "inputs": [
        {
          "name": "",
          "type": "uint256"
        }
      ],
      "name": "bets",
      "outputs": [
        {
          "name": "betId",
          "type": "uint256"
        },
        {
          "name": "question",
          "type": "bytes32"
        },
        {
          "name": "betStatus",
          "type": "uint8"
        },
        {
          "name": "lengthMoneyLineData",
          "type": "uint256"
        },
        {
          "name": "correctChoice",
          "type": "uint256"
        }
      ],
      "payable": false,
      "stateMutability": "view",
      "type": "function"
    },
    {
      "constant": true,
      "inputs": [],
      "name": "lengthBets",
      "outputs": [
        {
          "name": "",
          "type": "uint256"
        }
      ],
      "payable": false,
      "stateMutability": "view",
      "type": "function"
    },
    {
      "inputs": [],
      "payable": false,
      "stateMutability": "nonpayable",
      "type": "constructor"
    },
    {
      "constant": true,
      "inputs": [],
      "name": "isOwner",
      "outputs": [
        {
          "name": "",
          "type": "bool"
        }
      ],
      "payable": false,
      "stateMutability": "view",
      "type": "function"
    },
    {
      "constant": false,
      "inputs": [],
      "name": "addNewEmptyBet",
      "outputs": [],
      "payable": false,
      "stateMutability": "nonpayable",
      "type": "function"
    },
    {
      "constant": false,
      "inputs": [
        {
          "name": "question",
          "type": "bytes32"
        },
        {
          "name": "options",
          "type": "bytes32[2]"
        },
        {
          "name": "values",
          "type": "int256[2]"
        }
      ],
      "name": "addBet",
      "outputs": [],
      "payable": false,
      "stateMutability": "nonpayable",
      "type": "function"
    },
    {
      "constant": true,
      "inputs": [
        {
          "name": "betId",
          "type": "uint256"
        }
      ],
      "name": "getLengthMoneyLineData",
      "outputs": [
        {
          "name": "",
          "type": "uint256"
        }
      ],
      "payable": false,
      "stateMutability": "view",
      "type": "function"
    },
    {
      "constant": true,
      "inputs": [
        {
          "name": "betId",
          "type": "uint256"
        },
        {
          "name": "idx",
          "type": "uint256"
        }
      ],
      "name": "getMoneyLineData",
      "outputs": [
        {
          "name": "",
          "type": "bytes32"
        },
        {
          "name": "",
          "type": "int256"
        },
        {
          "name": "",
          "type": "uint256"
        }
      ],
      "payable": false,
      "stateMutability": "view",
      "type": "function"
    },
    {
      "constant": false,
      "inputs": [
        {
          "name": "betId",
          "type": "uint256"
        },
        {
          "name": "moneyLineDatumId",
          "type": "uint256"
        },
        {
          "name": "betValue",
          "type": "uint256"
        }
      ],
      "name": "bet",
      "outputs": [],
      "payable": true,
      "stateMutability": "payable",
      "type": "function"
    },
    {
      "constant": true,
      "inputs": [],
      "name": "myBets",
      "outputs": [
        {
          "name": "",
          "type": "uint256[]"
        },
        {
          "name": "",
          "type": "bytes32[]"
        },
        {
          "name": "",
          "type": "bytes32[]"
        },
        {
          "name": "",
          "type": "int256[]"
        }
      ],
      "payable": false,
      "stateMutability": "view",
      "type": "function"
    },
    {
      "constant": false,
      "inputs": [
        {
          "name": "betId",
          "type": "uint256"
        }
      ],
      "name": "closeBet",
      "outputs": [],
      "payable": false,
      "stateMutability": "nonpayable",
      "type": "function"
    },
    {
      "constant": false,
      "inputs": [
        {
          "name": "betId",
          "type": "uint256"
        },
        {
          "name": "correctChoice",
          "type": "uint256"
        }
      ],
      "name": "payout",
      "outputs": [],
      "payable": false,
      "stateMutability": "nonpayable",
      "type": "function"
    },
    {
      "constant": true,
      "inputs": [],
      "name": "getBalance",
      "outputs": [
        {
          "name": "",
          "type": "uint256"
        }
      ],
      "payable": false,
      "stateMutability": "view",
      "type": "function"
    },
    {
      "constant": false,
      "inputs": [],
      "name": "redeem",
      "outputs": [],
      "payable": false,
      "stateMutability": "nonpayable",
      "type": "function"
    }
  ],
  "bytecode": "0x60806040523480156200001157600080fd5b50336000806101000a81548173ffffffffffffffffffffffffffffffffffffffff021916908373ffffffffffffffffffffffffffffffffffffffff1602179055506200005c6200040c565b60405180604001604052807f4761746f7273000000000000000000000000000000000000000000000000000081526020017f487572726963616e6573000000000000000000000000000000000000000000008152509050620000bd6200042e565b6040518060400160405280606981526020017fffffffffffffffffffffffffffffffffffffffffffffffffffffffffffffff6a8152509050620001287f4761746f727320767320487572726963616e65730000000000000000000000008383620001f260201b60201c565b60405180604001604052807f4761746f7273000000000000000000000000000000000000000000000000000081526020017f42756c6c646f677300000000000000000000000000000000000000000000000081525091506040518060400160405280606e81526020017fffffffffffffffffffffffffffffffffffffffffffffffffffffffffffffff608152509050620001ea7f4761746f72732076732042756c6c646f677300000000000000000000000000008383620001f260201b60201c565b505062000503565b6000809054906101000a900473ffffffffffffffffffffffffffffffffffffffff1673ffffffffffffffffffffffffffffffffffffffff163373ffffffffffffffffffffffffffffffffffffffff161462000284576040517f08c379a00000000000000000000000000000000000000000000000000000000081526004016200027b90620004d0565b60405180910390fd5b620002946200039460201b60201c565b60006001600060025481526020019081526020016000209050600254816000018190555083816001018190555060008160020160006101000a81548160ff02191690836002811115620002e357fe5b0217905550600160026000828254019250508190555060008090505b60028110156200037a5760405180604001604052808583600281106200032157fe5b602002015181526020018483600281106200033857fe5b602002015181525082600301600083815260200190815260200160002060008201518160000155602082015181600101559050508080600101915050620002ff565b506002816004016000828254019250508190555050505050565b6200039e62000450565b80600160006002548152602001908152602001600020600082015181600001556020820151816001015560408201518160020160006101000a81548160ff02191690836002811115620003ed57fe5b0217905550606082015181600401556080820151816006015590505050565b6040518060400160405280600290602082028038833980820191505090505090565b6040518060400160405280600290602082028038833980820191505090505090565b6040518060a001604052806000815260200160008019168152602001600060028111156200047a57fe5b815260200160008152602001600081525090565b60006200049d601383620004f2565b91507f556e617574686f726973656420416363657373000000000000000000000000006000830152602082019050919050565b60006020820190508181036000830152620004eb816200048e565b9050919050565b600082825260208201905092915050565b611a4d80620005136000396000f3fe6080604052600436106100c25760003560e01c80638f32d59b1161007f578063b9b6006911610059578063b9b600691461025d578063be040fb014610288578063bfc548221461029f578063e5f51723146102bb576100c2565b80638f32d59b146101ca578063a24beff7146101f5578063b2606cb81461021e576100c2565b806312065fe0146100c7578063216de325146100f257806322af00fa146101205780633cd0ee09146101615780634a4e39d7146101785780635aa6cf97146101a1575b600080fd5b3480156100d357600080fd5b506100dc6102f8565b6040516100e991906117e0565b60405180910390f35b3480156100fe57600080fd5b506101076103a6565b604051610117949392919061170d565b60405180910390f35b34801561012c57600080fd5b506101476004803603610142919081019061143f565b61080d565b6040516101589594939291906117fb565b60405180910390f35b34801561016d57600080fd5b50610176610850565b005b34801561018457600080fd5b5061019f600480360361019a91908101906113f0565b6108c5565b005b3480156101ad57600080fd5b506101c860048036036101c39190810190611468565b610a57565b005b3480156101d657600080fd5b506101df610d91565b6040516101ec919061176e565b60405180910390f35b34801561020157600080fd5b5061021c6004803603610217919081019061143f565b610df9565b005b34801561022a57600080fd5b5061024560048036036102409190810190611468565b610ec2565b60405161025493929190611789565b60405180910390f35b34801561026957600080fd5b50610272610f9e565b60405161027f91906117e0565b60405180910390f35b34801561029457600080fd5b5061029d610fa4565b005b6102b960048036036102b491908101906114a4565b6110e3565b005b3480156102c757600080fd5b506102e260048036036102dd919081019061143f565b61126c565b6040516102ef91906117e0565b60405180910390f35b60008060009054906101000a900473ffffffffffffffffffffffffffffffffffffffff1673ffffffffffffffffffffffffffffffffffffffff163373ffffffffffffffffffffffffffffffffffffffff1614610389576040517f08c379a0000000000000000000000000000000000000000000000000000000008152600401610380906117c0565b60405180910390fd5b3073ffffffffffffffffffffffffffffffffffffffff1631905090565b6060806060806000600360003373ffffffffffffffffffffffffffffffffffffffff1673ffffffffffffffffffffffffffffffffffffffff1681526020019081526020016000208054905090506060816040519080825280602002602001820160405280156104245781602001602082028038833980820191505090505b5090506060826040519080825280602002602001820160405280156104585781602001602082028038833980820191505090505b50905060608360405190808252806020026020018201604052801561048c5781602001602082028038833980820191505090505b5090506060846040519080825280602002602001820160405280156104c05781602001602082028038833980820191505090505b50905060008090505b858110156107f5576000600360003373ffffffffffffffffffffffffffffffffffffffff1673ffffffffffffffffffffffffffffffffffffffff168152602001908152602001600020828154811061051d57fe5b90600052602060002090600302016000015490506000600360003373ffffffffffffffffffffffffffffffffffffffff1673ffffffffffffffffffffffffffffffffffffffff168152602001908152602001600020838154811061057d57fe5b9060005260206000209060030201600101549050600360003373ffffffffffffffffffffffffffffffffffffffff1673ffffffffffffffffffffffffffffffffffffffff16815260200190815260200160002083815481106105db57fe5b9060005260206000209060030201600201548784815181106105f957fe5b6020026020010181815250506001600083815260200190815260200160002060030160008281526020019081526020016000206000015486848151811061063c57fe5b6020026020010181815250506000600281111561065557fe5b6001600084815260200190815260200160002060020160009054906101000a900460ff16600281111561068457fe5b14806106c957506001600281111561069857fe5b6001600084815260200190815260200160002060020160009054906101000a900460ff1660028111156106c757fe5b145b1561070c577f70656e64696e67000000000000000000000000000000000000000000000000008584815181106106fb57fe5b6020026020010181815250506107e6565b80600160008481526020019081526020016000206006015414156107ab577f776f6e000000000000000000000000000000000000000000000000000000000085848151811061075757fe5b6020026020010181815250506001600083815260200190815260200160002060030160008281526020019081526020016000206001015484848151811061079a57fe5b6020026020010181815250506107e5565b7f6c6f7374000000000000000000000000000000000000000000000000000000008584815181106107d857fe5b6020026020010181815250505b5b505080806001019150506104c9565b50838383839850985098509850505050505090919293565b60016020528060005260406000206000915090508060000154908060010154908060020160009054906101000a900460ff16908060040154908060060154905085565b61085861128c565b80600160006002548152602001908152602001600020600082015181600001556020820151816001015560408201518160020160006101000a81548160ff021916908360028111156108a657fe5b0217905550606082015181600401556080820151816006015590505050565b6000809054906101000a900473ffffffffffffffffffffffffffffffffffffffff1673ffffffffffffffffffffffffffffffffffffffff163373ffffffffffffffffffffffffffffffffffffffff1614610954576040517f08c379a000000000000000000000000000000000000000000000000000000000815260040161094b906117c0565b60405180910390fd5b61095c610850565b60006001600060025481526020019081526020016000209050600254816000018190555083816001018190555060008160020160006101000a81548160ff021916908360028111156109aa57fe5b0217905550600160026000828254019250508190555060008090505b6002811015610a3d5760405180604001604052808583600281106109e657fe5b602002015181526020018483600281106109fc57fe5b6020020151815250826003016000838152602001908152602001600020600082015181600001556020820151816001015590505080806001019150506109c6565b506002816004016000828254019250508190555050505050565b6000809054906101000a900473ffffffffffffffffffffffffffffffffffffffff1673ffffffffffffffffffffffffffffffffffffffff163373ffffffffffffffffffffffffffffffffffffffff1614610ae6576040517f08c379a0000000000000000000000000000000000000000000000000000000008152600401610add906117c0565b60405180910390fd5b60016002811115610af357fe5b6001600084815260200190815260200160002060020160009054906101000a900460ff166002811115610b2257fe5b1415610d8d5780600160008481526020019081526020016000206006018190555060008090505b60016000848152602001908152602001600020600501600083815260200190815260200160002080549050811015610d535760006001600085815260200190815260200160002060050160008481526020019081526020016000208281548110610baf57fe5b906000526020600020906002020160000160009054906101000a900473ffffffffffffffffffffffffffffffffffffffff16905060006001600086815260200190815260200160002060050160008581526020019081526020016000208381548110610c1757fe5b9060005260206000209060020201600101549050600060016000878152602001908152602001600020600301600086815260200190815260200160002060010154905060003073ffffffffffffffffffffffffffffffffffffffff16311115610d3b576000811315610cdd578273ffffffffffffffffffffffffffffffffffffffff166108fc606484840281610ca957fe5b0484019081150290604051600060405180830381858888f19350505050158015610cd7573d6000803e3d6000fd5b50610d36565b8273ffffffffffffffffffffffffffffffffffffffff166108fc826000038460640281610d0657fe5b0484019081150290604051600060405180830381858888f19350505050158015610d34573d6000803e3d6000fd5b505b610d43565b505050610d53565b5050508080600101915050610b49565b5060026001600084815260200190815260200160002060020160006101000a81548160ff02191690836002811115610d8757fe5b02179055505b5050565b60008060009054906101000a900473ffffffffffffffffffffffffffffffffffffffff1673ffffffffffffffffffffffffffffffffffffffff163373ffffffffffffffffffffffffffffffffffffffff161415610df15760019050610df6565b600090505b90565b6000809054906101000a900473ffffffffffffffffffffffffffffffffffffffff1673ffffffffffffffffffffffffffffffffffffffff163373ffffffffffffffffffffffffffffffffffffffff1614610e88576040517f08c379a0000000000000000000000000000000000000000000000000000000008152600401610e7f906117c0565b60405180910390fd5b600180600083815260200190815260200160002060020160006101000a81548160ff02191690836002811115610eba57fe5b021790555050565b6000806000806001600087815260200190815260200160002060030160008681526020019081526020016000209050600080905060008090505b60016000898152602001908152602001600020600501600088815260200190815260200160002080549050811015610f83576001600089815260200190815260200160002060050160008881526020019081526020016000208181548110610f6057fe5b906000526020600020906002020160010154820191508080600101915050610efc565b50816000015482600101548294509450945050509250925092565b60025481565b6000809054906101000a900473ffffffffffffffffffffffffffffffffffffffff1673ffffffffffffffffffffffffffffffffffffffff163373ffffffffffffffffffffffffffffffffffffffff1614611033576040517f08c379a000000000000000000000000000000000000000000000000000000000815260040161102a906117c0565b60405180910390fd5b60003073ffffffffffffffffffffffffffffffffffffffff163111156110e15760006001905080156110df576000809054906101000a900473ffffffffffffffffffffffffffffffffffffffff1673ffffffffffffffffffffffffffffffffffffffff166108fc3073ffffffffffffffffffffffffffffffffffffffff16319081150290604051600060405180830381858888f193505050501580156110dd573d6000803e3d6000fd5b505b505b565b803410156110f057600080fd5b60016000848152602001908152602001600020600501600083815260200190815260200160002060405180604001604052803373ffffffffffffffffffffffffffffffffffffffff168152602001348152509080600181540180825580915050906001820390600052602060002090600202016000909192909190915060008201518160000160006101000a81548173ffffffffffffffffffffffffffffffffffffffff021916908373ffffffffffffffffffffffffffffffffffffffff16021790555060208201518160010155505050600360003373ffffffffffffffffffffffffffffffffffffffff1673ffffffffffffffffffffffffffffffffffffffff16815260200190815260200160002060405180606001604052808581526020018481526020018381525090806001815401808255809150509060018203906000526020600020906003020160009091929091909150600082015181600001556020820151816001015560408201518160020155505050505050565b600060016000838152602001908152602001600020600401549050919050565b6040518060a001604052806000815260200160008019168152602001600060028111156112b557fe5b815260200160008152602001600081525090565b600082601f8301126112da57600080fd5b60026112ed6112e88261187b565b61184e565b9150818385602084028201111561130357600080fd5b60005b83811015611333578161131988826113b1565b845260208401935060208301925050600181019050611306565b5050505092915050565b600082601f83011261134e57600080fd5b600261136161135c8261189d565b61184e565b9150818385602084028201111561137757600080fd5b60005b838110156113a7578161138d88826113c6565b84526020840193506020830192505060018101905061137a565b5050505092915050565b6000813590506113c0816119ce565b92915050565b6000813590506113d5816119e5565b92915050565b6000813590506113ea816119fc565b92915050565b600080600060a0848603121561140557600080fd5b6000611413868287016113b1565b9350506020611424868287016112c9565b92505060606114358682870161133d565b9150509250925092565b60006020828403121561145157600080fd5b600061145f848285016113db565b91505092915050565b6000806040838503121561147b57600080fd5b6000611489858286016113db565b925050602061149a858286016113db565b9150509250929050565b6000806000606084860312156114b957600080fd5b60006114c7868287016113db565b93505060206114d8868287016113db565b92505060406114e9868287016113db565b9150509250925092565b60006114ff8383611664565b60208301905092915050565b60006115178383611691565b60208301905092915050565b600061152f83836116ef565b60208301905092915050565b6000611546826118e6565b611550818561192e565b935061155b836118bf565b8060005b8381101561158c57815161157388826114f3565b975061157e83611907565b92505060018101905061155f565b5085935050505092915050565b60006115a4826118f1565b6115ae818561193f565b93506115b9836118cc565b8060005b838110156115ea5781516115d1888261150b565b97506115dc83611914565b9250506001810190506115bd565b5085935050505092915050565b6000611602826118fc565b61160c8185611950565b9350611617836118d9565b8060005b8381101561164857815161162f8882611523565b975061163a83611921565b92505060018101905061161b565b5085935050505092915050565b61165e81611972565b82525050565b61166d8161197e565b82525050565b61167c8161197e565b82525050565b61168b816119af565b82525050565b61169a8161199b565b82525050565b6116a98161199b565b82525050565b60006116bc601383611961565b91507f556e617574686f726973656420416363657373000000000000000000000000006000830152602082019050919050565b6116f8816119a5565b82525050565b611707816119a5565b82525050565b6000608082019050818103600083015261172781876115f7565b9050818103602083015261173b818661153b565b9050818103604083015261174f818561153b565b905081810360608301526117638184611599565b905095945050505050565b60006020820190506117836000830184611655565b92915050565b600060608201905061179e6000830186611673565b6117ab60208301856116a0565b6117b860408301846116fe565b949350505050565b600060208201905081810360008301526117d9816116af565b9050919050565b60006020820190506117f560008301846116fe565b92915050565b600060a08201905061181060008301886116fe565b61181d6020830187611673565b61182a6040830186611682565b61183760608301856116fe565b61184460808301846116fe565b9695505050505050565b6000604051905081810181811067ffffffffffffffff8211171561187157600080fd5b8060405250919050565b600067ffffffffffffffff82111561189257600080fd5b602082029050919050565b600067ffffffffffffffff8211156118b457600080fd5b602082029050919050565b6000602082019050919050565b6000602082019050919050565b6000602082019050919050565b600081519050919050565b600081519050919050565b600081519050919050565b6000602082019050919050565b6000602082019050919050565b6000602082019050919050565b600082825260208201905092915050565b600082825260208201905092915050565b600082825260208201905092915050565b600082825260208201905092915050565b60008115159050919050565b6000819050919050565b6000819050611996826119c1565b919050565b6000819050919050565b6000819050919050565b60006119ba82611988565b9050919050565b600381106119cb57fe5b50565b6119d78161197e565b81146119e257600080fd5b50565b6119ee8161199b565b81146119f957600080fd5b50565b611a05816119a5565b8114611a1057600080fd5b5056fea265627a7a72305820c9794e7c0f77244d15ed41b547f8277e34c0601b7fda79bb1731f9e50b0a7cd56c6578706572696d656e74616cf50037",
  "source": "pragma solidity ^0.5.0;\r\npragma experimental ABIEncoderV2;\r\n\r\ncontract Betting {\r\n\r\n\tstruct Bet{\r\n\t\tuint betId; // id of the bet\r\n\t\tbytes32 question; // title of the bet\r\n\t\tBetStatus betStatus; // status of the bet {Open | Closed | Settled}\r\n\t\tmapping(uint => MoneyLineDatum) moneyLineData; // to store betting odds\r\n\t\tuint lengthMoneyLineData; // length of moneyLineData\r\n\t\tmapping(uint => BetterDatum[]) bettersData; // stores bet data\r\n\t\tuint correctChoice; // winning team\r\n\t}\r\n\r\n\r\n\tstruct MoneyLineDatum{\r\n\t\tbytes32 option; // team name\r\n\t\tint value; // betting odd for a team\r\n\t}\r\n\t\r\n\tstruct BetterDatum{\r\n\t\taddress payable better; // betters address\r\n\t\tuint value; // bet value of the better\r\n\t}\r\n\r\n\t// used for my bets\r\n\tstruct BetterCacheDatum{\r\n\t\tuint betId; // bet id\r\n\t\tuint optionId; // option chosen\r\n\t\tuint betValue; // bet value of the better\r\n\t}\r\n\t\r\n\taddress\tpayable owner; // store owner address\r\n\r\n\tmapping(uint => Bet) public bets; // store all bet\r\n\tuint public lengthBets; // length of bets\r\n\r\n\tmapping(address => BetterCacheDatum[]) betterCacheData; // store betters data for fast access\r\n\t// uint public lengthBetterCacheData;\r\n\r\n\tenum BetStatus {Open, Closed, Settled} //enums for different status of the bet\r\n\r\n\t// constructor\r\n\tconstructor() public{\r\n\t\towner = msg.sender; // set owner\r\n\r\n\t\t// add 2 open bets by default\r\n\t\tbytes32[2] memory options = [bytes32(\"Gators\"), bytes32(\"Hurricanes\")];\r\n\t\tint[2] memory values = [int(105), -150];\r\n\t\taddBet(bytes32(\"Gators vs Hurricanes\"), options, values);\r\n\r\n\t\toptions = [bytes32(\"Gators\"), bytes32(\"Bulldogs\")];\r\n\t\tvalues = [int(110), -160];\r\n\t\taddBet(bytes32(\"Gators vs Bulldogs\"), options, values);\r\n\t}\r\n\r\n\t// to restrict access to non admin users\r\n\tmodifier onlyByOwner{\r\n\t\trequire(msg.sender == owner, \"Unauthorised Access\");\r\n\t\t_;\r\n\t}\r\n\r\n\t// to find if the current user is admin\r\n\tfunction isOwner() public view returns(bool){\r\n\t\tif(msg.sender == owner){\r\n\t\t\treturn true;\r\n\t\t} else{\r\n\t\t\treturn false;\r\n\t\t}\r\n\t}\r\n\r\n\t// adds a bet without setting any values\r\n\tfunction addNewEmptyBet() public{\r\n\t\tBet memory bet;\r\n\t\tbets[lengthBets] = bet;\r\n\t}\r\n\r\n\t// to add bet\r\n\tfunction addBet(bytes32 question, bytes32[2] memory options, int[2] memory values) public onlyByOwner{\r\n\t\taddNewEmptyBet();\r\n\t\tBet storage bet = bets[lengthBets];\r\n\t\tbet.betId = lengthBets; //set id\r\n\t\tbet.question = question; // set title\r\n\t\tbet.betStatus = BetStatus.Open; // set status\r\n\t\tlengthBets+=1;\r\n\t\t// set team name and betting odds\r\n\t\tfor(uint i=0; i<options.length; i++){\r\n\t\t\tbet.moneyLineData[i] = MoneyLineDatum(options[i], values[i]);\r\n\t\t}\r\n\t\tbet.lengthMoneyLineData+=options.length;\r\n\t}\r\n\r\n\t// get total number of options in a bet. Currently only 2\r\n\tfunction getLengthMoneyLineData(uint betId) public view returns(uint){\r\n\t\treturn bets[betId].lengthMoneyLineData;\r\n\t}\r\n\r\n\t// get team name and betting odd for a given bet and a given team\r\n\tfunction getMoneyLineData(uint betId, uint idx) public view returns(bytes32, int, uint){\r\n\t\tMoneyLineDatum storage moneyLineDatum = bets[betId].moneyLineData[idx];\r\n\t\tuint totalBetValue = 0;\r\n\t\tfor(uint i=0; i<bets[betId].bettersData[idx].length; i++){\r\n\t\t\ttotalBetValue += bets[betId].bettersData[idx][i].value;\r\n\t\t}\r\n\t\treturn (moneyLineDatum.option, moneyLineDatum.value, totalBetValue);\r\n\t}\r\n\r\n\t// allows the user to bet\r\n\tfunction bet(uint betId, uint moneyLineDatumId, uint betValue) payable public{\r\n\t\trequire(msg.value >= betValue);\r\n\t\tbets[betId].bettersData[moneyLineDatumId].push(BetterDatum(msg.sender, msg.value)); // record betters address, choice and bet value\r\n\t\tbetterCacheData[msg.sender].push(BetterCacheDatum(betId, moneyLineDatumId, betValue));\r\n\t}\r\n\r\n\t// returns all the bet made by a user\r\n\tfunction myBets() public view returns (uint[] memory, bytes32[] memory, bytes32[] memory, int[] memory){\r\n\t\tuint n = betterCacheData[msg.sender].length;\r\n\r\n\t\tuint[] memory betValues = new uint[](n);\r\n\t\tbytes32[] memory options = new bytes32[](n);\r\n\t\tbytes32[] memory winStatus = new bytes32[](n);\r\n\t\tint[] memory moneyLineValues = new int[](n);\r\n\r\n\t\tfor(uint i=0; i<n; i++){\r\n\t\t\tuint betId = betterCacheData[msg.sender][i].betId;\r\n\t\t\tuint optionId = betterCacheData[msg.sender][i].optionId;\r\n\r\n\t\t\tbetValues[i] = betterCacheData[msg.sender][i].betValue;\r\n\t\t\toptions[i] = bets[betId].moneyLineData[optionId].option;\r\n\r\n\t\t\tif(bets[betId].betStatus == BetStatus.Open || bets[betId].betStatus == BetStatus.Closed){\r\n\t\t\t\twinStatus[i] = \"pending\";\r\n\t\t\t} else{\r\n\t\t\t\tif(bets[betId].correctChoice == optionId){\r\n\t\t\t\t\twinStatus[i] = \"won\";\r\n\t\t\t\t\tmoneyLineValues[i] = bets[betId].moneyLineData[optionId].value;\r\n\t\t\t\t} else{\r\n\t\t\t\t\twinStatus[i] = \"lost\";\r\n\t\t\t\t}\r\n\t\t\t}\r\n\t\t}\r\n\t\treturn (betValues, options, winStatus, moneyLineValues);\r\n\t}\r\n\r\n\t// close a bet before the toss\r\n\tfunction closeBet(uint betId) public onlyByOwner{\r\n\t\tbets[betId].betStatus = BetStatus.Closed;\r\n\t}\r\n\r\n\t// start the payout process after the winner is known\r\n\tfunction payout(uint betId, uint correctChoice) public onlyByOwner{\r\n\t\tif(bets[betId].betStatus == BetStatus.Closed){\r\n\t\t\tbets[betId].correctChoice = correctChoice;\r\n\t\t\tfor(uint i=0; i<bets[betId].bettersData[correctChoice].length; i++){\r\n\t\t\t\taddress payable better = bets[betId].bettersData[correctChoice][i].better;\r\n\t\t\t\tuint betValue = bets[betId].bettersData[correctChoice][i].value;\r\n\t\t\t\t\r\n\t\t\t\tint moneyLineValue = bets[betId].moneyLineData[correctChoice].value;\r\n\t\t\t\tif(address(this).balance > 0){\r\n\t\t\t\t\tif(moneyLineValue > 0){\r\n\t\t\t\t\t\tbetter.transfer(betValue+uint(moneyLineValue)*betValue/uint(100));\r\n\t\t\t\t\t} else{\r\n\t\t\t\t\t\tbetter.transfer(betValue+(uint(100)*betValue)/uint(-moneyLineValue));\t\t\t\t\r\n\t\t\t\t\t}\r\n\t\t\t\t} else{\r\n\t\t\t\t\tbreak;\r\n\t\t\t\t}\r\n\t\t\t}\r\n\t\t\tbets[betId].betStatus = BetStatus.Settled;\r\n\t\t}\r\n\t}\r\n\r\n\t// get ethers held by the contact\r\n\tfunction getBalance() public view onlyByOwner returns(uint){\r\n\t\treturn address(this).balance;\r\n\t}\r\n\r\n\t// redeem the ethers in the contract\r\n\tfunction redeem() public onlyByOwner{\r\n\t\tif(address(this).balance > 0){\t\r\n\t\t\tbool allBetsSettled = true;\r\n\t\t\t/*for(uint i=lengthBets-1; i>=0; i--){\r\n\t\t\t\tif(bets[i].betStatus != BetStatus.Settled){\r\n\t\t\t\t\tallBetsSettled = false;\r\n\t\t\t\t\tbreak;\r\n\t\t\t\t}else{\r\n\t\t\t\t\tallBetsSettled = true;\r\n\t\t\t\t}\r\n\t\t\t}*/\r\n\t\t\tif(allBetsSettled){\r\n\t\t\t\towner.transfer(address(this).balance);\r\n\t\t\t}\r\n\t\t}\r\n\t}\r\n}\r\n",
  "sourcePath": "D:/Workspace/Nodejs/ethereum-sports-betting/contracts/Betting.sol",
  "compiler": {
    "name": "solc",
    "version": "0.5.8+commit.23d335f2.Emscripten.clang"
  },
  "schemaVersion": "3.0.16",
  "updatedAt": "2019-12-17T22:51:33.071Z",
  "devdoc": {
    "methods": {}
  },
  "userdoc": {
    "methods": {}
  }
}